{
  "contractName": "Lottery",
  "abi": [
    {
      "inputs": [
        {
          "internalType": "address",
          "name": "owner",
          "type": "address"
        },
        {
          "internalType": "address",
          "name": "manager1",
          "type": "address"
        },
        {
          "internalType": "address",
          "name": "manager2",
          "type": "address"
        },
        {
          "internalType": "address",
          "name": "mokAddress",
          "type": "address"
        }
      ],
      "stateMutability": "nonpayable",
      "type": "constructor"
    },
    {
      "inputs": [
        {
          "internalType": "uint256",
          "name": "amount",
          "type": "uint256"
        }
      ],
      "name": "buyTicket",
      "outputs": [],
      "stateMutability": "nonpayable",
      "type": "function"
    },
    {
      "inputs": [],
      "name": "getJackpot",
      "outputs": [
        {
          "internalType": "uint256",
          "name": "",
          "type": "uint256"
        }
      ],
      "stateMutability": "view",
      "type": "function",
      "constant": true
    },
    {
      "inputs": [],
      "name": "getNextDrawTime",
      "outputs": [
        {
          "internalType": "uint256",
          "name": "",
          "type": "uint256"
        }
      ],
      "stateMutability": "view",
      "type": "function",
      "constant": true
    },
    {
      "inputs": [],
      "name": "chooseWinner",
      "outputs": [
        {
          "internalType": "address",
          "name": "",
          "type": "address"
        }
      ],
      "stateMutability": "nonpayable",
      "type": "function"
    },
    {
      "inputs": [],
      "name": "collectUsageFees",
      "outputs": [
        {
          "internalType": "bool",
          "name": "",
          "type": "bool"
        }
      ],
      "stateMutability": "nonpayable",
      "type": "function"
    }
  ],
  "bytecode": "0x60806040523480156200001157600080fd5b5060405162001245380380620012458339818101604052810190620000379190620001eb565b6000808190555083600360006101000a81548173ffffffffffffffffffffffffffffffffffffffff021916908373ffffffffffffffffffffffffffffffffffffffff1602179055508260046000600281106200009857620000976200025d565b5b0160006101000a81548173ffffffffffffffffffffffffffffffffffffffff021916908373ffffffffffffffffffffffffffffffffffffffff160217905550816004600160028110620000f057620000ef6200025d565b5b0160006101000a81548173ffffffffffffffffffffffffffffffffffffffff021916908373ffffffffffffffffffffffffffffffffffffffff16021790555080600660006101000a81548173ffffffffffffffffffffffffffffffffffffffff021916908373ffffffffffffffffffffffffffffffffffffffff16021790555042600281905550505050506200028c565b600080fd5b600073ffffffffffffffffffffffffffffffffffffffff82169050919050565b6000620001b38262000186565b9050919050565b620001c581620001a6565b8114620001d157600080fd5b50565b600081519050620001e581620001ba565b92915050565b6000806000806080858703121562000208576200020762000181565b5b60006200021887828801620001d4565b94505060206200022b87828801620001d4565b93505060406200023e87828801620001d4565b92505060606200025187828801620001d4565b91505092959194509250565b7f4e487b7100000000000000000000000000000000000000000000000000000000600052603260045260246000fd5b610fa9806200029c6000396000f3fe608060405234801561001057600080fd5b50600436106100575760003560e01c8063259aef861461005c57806367dd74ca1461007a5780639329066c14610096578063cd38aa87146100b4578063ecfea5d5146100d2575b600080fd5b6100646100f0565b604051610071919061099d565b60405180910390f35b610094600480360381019061008f91906109f3565b6102cc565b005b61009e6105da565b6040516100ab9190610a2f565b60405180910390f35b6100bc6105e3565b6040516100c99190610a8b565b60405180910390f35b6100da610917565b6040516100e79190610a2f565b60405180910390f35b6000600360009054906101000a900473ffffffffffffffffffffffffffffffffffffffff1673ffffffffffffffffffffffffffffffffffffffff163373ffffffffffffffffffffffffffffffffffffffff161461014c57600080fd5b6000600660009054906101000a900473ffffffffffffffffffffffffffffffffffffffff1690506001548173ffffffffffffffffffffffffffffffffffffffff166370a08231306040518263ffffffff1660e01b81526004016101af9190610a8b565b602060405180830381865afa1580156101cc573d6000803e3d6000fd5b505050506040513d601f19601f820116820180604052508101906101f09190610abb565b10156101fb57600080fd5b8073ffffffffffffffffffffffffffffffffffffffff166323b872dd30336001546040518463ffffffff1660e01b815260040161023a93929190610ae8565b6020604051808303816000875af1158015610259573d6000803e3d6000fd5b505050506040513d601f19601f8201168201806040525081019061027d9190610b4b565b6102bc576040517f08c379a00000000000000000000000000000000000000000000000000000000081526004016102b390610bd5565b60405180910390fd5b6000600181905550600191505090565b6000600660009054906101000a900473ffffffffffffffffffffffffffffffffffffffff1690508160146103009190610c24565b8173ffffffffffffffffffffffffffffffffffffffff166370a08231336040518263ffffffff1660e01b81526004016103399190610a8b565b602060405180830381865afa158015610356573d6000803e3d6000fd5b505050506040513d601f19601f8201168201806040525081019061037a9190610abb565b101561038557600080fd5b8073ffffffffffffffffffffffffffffffffffffffff1663095ea7b3336014856103af9190610c24565b6040518363ffffffff1660e01b81526004016103cc929190610c7e565b6020604051808303816000875af11580156103eb573d6000803e3d6000fd5b505050506040513d601f19601f8201168201806040525081019061040f9190610b4b565b61044e576040517f08c379a000000000000000000000000000000000000000000000000000000000815260040161044590610cf3565b60405180910390fd5b8073ffffffffffffffffffffffffffffffffffffffff1663a9059cbb306014856104789190610c24565b6040518363ffffffff1660e01b8152600401610495929190610c7e565b6020604051808303816000875af11580156104b4573d6000803e3d6000fd5b505050506040513d601f19601f820116820180604052508101906104d89190610b4b565b610517576040517f08c379a000000000000000000000000000000000000000000000000000000000815260040161050e90610d85565b60405180910390fd5b6013826105249190610c24565b6000808282546105349190610da5565b92505081905550816001600082825461054d9190610da5565b9250508190555060005b828110156105d5576007339080600181540180825580915050600190039060005260206000200160009091909190916101000a81548173ffffffffffffffffffffffffffffffffffffffff021916908373ffffffffffffffffffffffffffffffffffffffff16021790555080806105cd90610dfb565b915050610557565b505050565b60008054905090565b6000600360009054906101000a900473ffffffffffffffffffffffffffffffffffffffff1673ffffffffffffffffffffffffffffffffffffffff163373ffffffffffffffffffffffffffffffffffffffff1614806106a25750600460006002811061065157610650610e44565b5b0160009054906101000a900473ffffffffffffffffffffffffffffffffffffffff1673ffffffffffffffffffffffffffffffffffffffff163373ffffffffffffffffffffffffffffffffffffffff16145b8061070e575060046001600281106106bd576106bc610e44565b5b0160009054906101000a900473ffffffffffffffffffffffffffffffffffffffff1673ffffffffffffffffffffffffffffffffffffffff163373ffffffffffffffffffffffffffffffffffffffff16145b61071757600080fd5b61012c600254426107289190610e73565b101561073357600080fd5b426002819055506000600660009054906101000a900473ffffffffffffffffffffffffffffffffffffffff1690506000548173ffffffffffffffffffffffffffffffffffffffff166370a08231306040518263ffffffff1660e01b815260040161079d9190610a8b565b602060405180830381865afa1580156107ba573d6000803e3d6000fd5b505050506040513d601f19601f820116820180604052508101906107de9190610abb565b10156107e957600080fd5b600060076107fb60078054905061092e565b8154811061080c5761080b610e44565b5b9060005260206000200160009054906101000a900473ffffffffffffffffffffffffffffffffffffffff1690508173ffffffffffffffffffffffffffffffffffffffff166323b872dd30836000546040518463ffffffff1660e01b815260040161087893929190610ae8565b6020604051808303816000875af1158015610897573d6000803e3d6000fd5b505050506040513d601f19601f820116820180604052508101906108bb9190610b4b565b6108fa576040517f08c379a00000000000000000000000000000000000000000000000000000000081526004016108f190610ef3565b60405180910390fd5b600080819055506007600061090f9190610944565b809250505090565b600061012c6002546109299190610da5565b905090565b600081600161093d9190610f42565b9050919050565b50805460008255906000526020600020908101906109629190610965565b50565b5b8082111561097e576000816000905550600101610966565b5090565b60008115159050919050565b61099781610982565b82525050565b60006020820190506109b2600083018461098e565b92915050565b600080fd5b6000819050919050565b6109d0816109bd565b81146109db57600080fd5b50565b6000813590506109ed816109c7565b92915050565b600060208284031215610a0957610a086109b8565b5b6000610a17848285016109de565b91505092915050565b610a29816109bd565b82525050565b6000602082019050610a446000830184610a20565b92915050565b600073ffffffffffffffffffffffffffffffffffffffff82169050919050565b6000610a7582610a4a565b9050919050565b610a8581610a6a565b82525050565b6000602082019050610aa06000830184610a7c565b92915050565b600081519050610ab5816109c7565b92915050565b600060208284031215610ad157610ad06109b8565b5b6000610adf84828501610aa6565b91505092915050565b6000606082019050610afd6000830186610a7c565b610b0a6020830185610a7c565b610b176040830184610a20565b949350505050565b610b2881610982565b8114610b3357600080fd5b50565b600081519050610b4581610b1f565b92915050565b600060208284031215610b6157610b606109b8565b5b6000610b6f84828501610b36565b91505092915050565b600082825260208201905092915050565b7f4661696c656420746f20636f6c6c656374207573616765206665657300000000600082015250565b6000610bbf601c83610b78565b9150610bca82610b89565b602082019050919050565b60006020820190508181036000830152610bee81610bb2565b9050919050565b7f4e487b7100000000000000000000000000000000000000000000000000000000600052601160045260246000fd5b6000610c2f826109bd565b9150610c3a836109bd565b9250817fffffffffffffffffffffffffffffffffffffffffffffffffffffffffffffffff0483118215151615610c7357610c72610bf5565b5b828202905092915050565b6000604082019050610c936000830185610a7c565b610ca06020830184610a20565b9392505050565b7f4661696c656420746f20617070726f766520616d6f756e740000000000000000600082015250565b6000610cdd601883610b78565b9150610ce882610ca7565b602082019050919050565b60006020820190508181036000830152610d0c81610cd0565b9050919050565b7f4661696c656420746f207472616e73666572204d6f6b207061796d656e74207460008201527f6f204c6f747465727920636f6e74726163740000000000000000000000000000602082015250565b6000610d6f603283610b78565b9150610d7a82610d13565b604082019050919050565b60006020820190508181036000830152610d9e81610d62565b9050919050565b6000610db0826109bd565b9150610dbb836109bd565b9250827fffffffffffffffffffffffffffffffffffffffffffffffffffffffffffffffff03821115610df057610def610bf5565b5b828201905092915050565b6000610e06826109bd565b91507fffffffffffffffffffffffffffffffffffffffffffffffffffffffffffffffff821415610e3957610e38610bf5565b5b600182019050919050565b7f4e487b7100000000000000000000000000000000000000000000000000000000600052603260045260246000fd5b6000610e7e826109bd565b9150610e89836109bd565b925082821015610e9c57610e9b610bf5565b5b828203905092915050565b7f4661696c656420746f206177617264206c6f74746572792077696e6e65722e00600082015250565b6000610edd601f83610b78565b9150610ee882610ea7565b602082019050919050565b60006020820190508181036000830152610f0c81610ed0565b9050919050565b7f4e487b7100000000000000000000000000000000000000000000000000000000600052601260045260246000fd5b6000610f4d826109bd565b9150610f58836109bd565b925082610f6857610f67610f13565b5b82820690509291505056fea264697066735822122088e960f879bcd3463603f5e09c078b1f26685c802aef0c354c42daeb41b1cffb64736f6c634300080c0033",
  "immutableReferences": {},
  "source": "// SPDX-License-Identifier: MIT\npragma solidity ^0.8.0;\n\nimport \"@openzeppelin/contracts/token/ERC20/ERC20.sol\";\n\ncontract MokToken is ERC20 {\n    constructor(string memory name, string memory symbol) ERC20(name, symbol) {\n        _mint(msg.sender, 1000 * (10**decimals()));\n    }\n}\n\ninterface Mok {\n    function balanceOf(address who) external view returns (uint256);\n\n    function transfer(\n        address recipient,\n        uint256 amount\n    ) external returns (bool);\n\n    function transferFrom(\n        address sender,\n        address recipient,\n        uint256 amount\n    ) external returns (bool);\n\n    function approve(address spender, uint256 amount) external returns (bool);\n}\n\ncontract Lottery {\n    uint256 _jackpot;\n    uint256 _usage_fees;\n    uint256 _last_draw_time;\n    address _owner;\n    address[2] _managers;\n    address _mok_address;\n    address[] _players;\n\n    constructor(\n        address owner,\n        address manager1,\n        address manager2,\n        address mokAddress\n    ) {\n        _jackpot = 0;\n        _owner = owner;\n        _managers[0] = manager1;\n        _managers[1] = manager2;\n        _mok_address = mokAddress;\n        _last_draw_time = block.timestamp;\n    }\n\n    modifier onlyOwner() {\n        require(msg.sender == _owner);\n        _;\n    }\n\n    modifier onlyAdmin() {\n        require(\n            msg.sender == _owner ||\n                msg.sender == _managers[0] ||\n                msg.sender == _managers[1]\n        );\n        _;\n    }\n\n    function buyTicket(uint256 amount) public {\n        Mok m = Mok(_mok_address);\n\n        require(m.balanceOf(msg.sender) >= 20 * amount);\n\n        if (!m.approve(msg.sender, amount * 20)) {\n            revert(\"Failed to approve amount\");\n        }\n\n        if (!m.transfer(address(this), amount * 20)) {\n            revert(\"Failed to transfer Mok payment to Lottery contract\");\n        }\n\n        _jackpot += amount * 19; // 19 = 95% of 20\n\n        _usage_fees += amount;\n\n        for (uint256 i = 0; i < amount; i++) {\n            _players.push(msg.sender);\n        }\n    }\n\n    function prng(uint256 max) private pure returns (uint256) {\n        return 1 % max;\n    }\n\n    function getJackpot() public view returns (uint256) {\n        return _jackpot;\n    }\n\n    function getNextDrawTime() public view returns (uint256) {\n        return _last_draw_time + 5 * 60;\n    }\n\n    function chooseWinner() public onlyAdmin returns (address) {\n        // 5 minutes must have passed before new draw\n        require(block.timestamp - _last_draw_time >= 5 * 60);\n\n        _last_draw_time = block.timestamp;\n\n        Mok m = Mok(_mok_address);\n\n        // this better be true...\n        require(m.balanceOf(address(this)) >= _jackpot);\n\n        address winner = _players[prng(_players.length)];\n\n        if (!m.transferFrom(address(this), winner, _jackpot)) {\n            revert(\"Failed to award lottery winner.\");\n        }\n\n        _jackpot = 0;\n        delete _players;\n\n        return winner;\n    }\n\n    function collectUsageFees() public onlyOwner returns (bool) {\n        Mok m = Mok(_mok_address);\n\n        require(m.balanceOf(address(this)) >= _usage_fees);\n\n        if (!m.transferFrom(address(this), msg.sender, _usage_fees)) {\n            revert(\"Failed to collect usage fees\");\n        }\n\n        _usage_fees = 0;\n\n        return true;\n    }\n}\n",
  "sourcePath": "/home/david/documents/programming/html/blockchain-exercise/contracts/MokToken.sol",
  "compiler": {
    "name": "solc",
    "version": "0.8.12+commit.f00d7308.Emscripten.clang"
  },
  "schemaVersion": "3.4.5",
  "updatedAt": "2022-03-07T02:15:36.209Z",
  "networkType": "ethereum",
  "devdoc": {
    "kind": "dev",
    "methods": {},
    "version": 1
  },
  "userdoc": {
    "kind": "user",
    "methods": {},
    "version": 1
  }
}