{
  "_format": "hh-sol-artifact-1",
  "contractName": "Lottery",
  "sourceName": "contracts/Lottery.sol",
  "abi": [
    {
      "inputs": [
        {
          "internalType": "address",
          "name": "manager1",
          "type": "address"
        },
        {
          "internalType": "address",
          "name": "manager2",
          "type": "address"
        },
        {
          "internalType": "address",
          "name": "mokAddress",
          "type": "address"
        }
      ],
      "stateMutability": "nonpayable",
      "type": "constructor"
    },
    {
      "anonymous": false,
      "inputs": [
        {
          "indexed": true,
          "internalType": "bytes32",
          "name": "role",
          "type": "bytes32"
        },
        {
          "indexed": true,
          "internalType": "bytes32",
          "name": "previousAdminRole",
          "type": "bytes32"
        },
        {
          "indexed": true,
          "internalType": "bytes32",
          "name": "newAdminRole",
          "type": "bytes32"
        }
      ],
      "name": "RoleAdminChanged",
      "type": "event"
    },
    {
      "anonymous": false,
      "inputs": [
        {
          "indexed": true,
          "internalType": "bytes32",
          "name": "role",
          "type": "bytes32"
        },
        {
          "indexed": true,
          "internalType": "address",
          "name": "account",
          "type": "address"
        },
        {
          "indexed": true,
          "internalType": "address",
          "name": "sender",
          "type": "address"
        }
      ],
      "name": "RoleGranted",
      "type": "event"
    },
    {
      "anonymous": false,
      "inputs": [
        {
          "indexed": true,
          "internalType": "bytes32",
          "name": "role",
          "type": "bytes32"
        },
        {
          "indexed": true,
          "internalType": "address",
          "name": "account",
          "type": "address"
        },
        {
          "indexed": true,
          "internalType": "address",
          "name": "sender",
          "type": "address"
        }
      ],
      "name": "RoleRevoked",
      "type": "event"
    },
    {
      "inputs": [],
      "name": "DEFAULT_ADMIN_ROLE",
      "outputs": [
        {
          "internalType": "bytes32",
          "name": "",
          "type": "bytes32"
        }
      ],
      "stateMutability": "view",
      "type": "function"
    },
    {
      "inputs": [],
      "name": "MANAGER_ROLE",
      "outputs": [
        {
          "internalType": "bytes32",
          "name": "",
          "type": "bytes32"
        }
      ],
      "stateMutability": "view",
      "type": "function"
    },
    {
      "inputs": [],
      "name": "OWNER_ROLE",
      "outputs": [
        {
          "internalType": "bytes32",
          "name": "",
          "type": "bytes32"
        }
      ],
      "stateMutability": "view",
      "type": "function"
    },
    {
      "inputs": [],
      "name": "_jackpot",
      "outputs": [
        {
          "internalType": "uint256",
          "name": "",
          "type": "uint256"
        }
      ],
      "stateMutability": "view",
      "type": "function"
    },
    {
      "inputs": [],
      "name": "_last_draw_time",
      "outputs": [
        {
          "internalType": "uint256",
          "name": "",
          "type": "uint256"
        }
      ],
      "stateMutability": "view",
      "type": "function"
    },
    {
      "inputs": [],
      "name": "_mok_address",
      "outputs": [
        {
          "internalType": "address",
          "name": "",
          "type": "address"
        }
      ],
      "stateMutability": "view",
      "type": "function"
    },
    {
      "inputs": [],
      "name": "_owner",
      "outputs": [
        {
          "internalType": "address",
          "name": "",
          "type": "address"
        }
      ],
      "stateMutability": "view",
      "type": "function"
    },
    {
      "inputs": [
        {
          "internalType": "uint256",
          "name": "amount",
          "type": "uint256"
        }
      ],
      "name": "buyTicket",
      "outputs": [],
      "stateMutability": "nonpayable",
      "type": "function"
    },
    {
      "inputs": [],
      "name": "chooseWinner",
      "outputs": [
        {
          "internalType": "address",
          "name": "",
          "type": "address"
        }
      ],
      "stateMutability": "nonpayable",
      "type": "function"
    },
    {
      "inputs": [],
      "name": "collectUsageFees",
      "outputs": [
        {
          "internalType": "bool",
          "name": "",
          "type": "bool"
        }
      ],
      "stateMutability": "nonpayable",
      "type": "function"
    },
    {
      "inputs": [
        {
          "internalType": "bytes32",
          "name": "role",
          "type": "bytes32"
        }
      ],
      "name": "getRoleAdmin",
      "outputs": [
        {
          "internalType": "bytes32",
          "name": "",
          "type": "bytes32"
        }
      ],
      "stateMutability": "view",
      "type": "function"
    },
    {
      "inputs": [
        {
          "internalType": "bytes32",
          "name": "role",
          "type": "bytes32"
        },
        {
          "internalType": "address",
          "name": "account",
          "type": "address"
        }
      ],
      "name": "grantRole",
      "outputs": [],
      "stateMutability": "nonpayable",
      "type": "function"
    },
    {
      "inputs": [
        {
          "internalType": "bytes32",
          "name": "role",
          "type": "bytes32"
        },
        {
          "internalType": "address",
          "name": "account",
          "type": "address"
        }
      ],
      "name": "hasRole",
      "outputs": [
        {
          "internalType": "bool",
          "name": "",
          "type": "bool"
        }
      ],
      "stateMutability": "view",
      "type": "function"
    },
    {
      "inputs": [
        {
          "internalType": "bytes32",
          "name": "role",
          "type": "bytes32"
        },
        {
          "internalType": "address",
          "name": "account",
          "type": "address"
        }
      ],
      "name": "renounceRole",
      "outputs": [],
      "stateMutability": "nonpayable",
      "type": "function"
    },
    {
      "inputs": [
        {
          "internalType": "bytes32",
          "name": "role",
          "type": "bytes32"
        },
        {
          "internalType": "address",
          "name": "account",
          "type": "address"
        }
      ],
      "name": "revokeRole",
      "outputs": [],
      "stateMutability": "nonpayable",
      "type": "function"
    },
    {
      "inputs": [
        {
          "internalType": "bytes4",
          "name": "interfaceId",
          "type": "bytes4"
        }
      ],
      "name": "supportsInterface",
      "outputs": [
        {
          "internalType": "bool",
          "name": "",
          "type": "bool"
        }
      ],
      "stateMutability": "view",
      "type": "function"
    }
  ],
  "bytecode": "0x60806040523480156200001157600080fd5b506040516200236638038062002366833981810160405281019062000037919062000411565b600060018190555033600460006101000a81548173ffffffffffffffffffffffffffffffffffffffff021916908373ffffffffffffffffffffffffffffffffffffffff160217905550826006600060028110620000bd577f4e487b7100000000000000000000000000000000000000000000000000000000600052603260045260246000fd5b0160006101000a81548173ffffffffffffffffffffffffffffffffffffffff021916908373ffffffffffffffffffffffffffffffffffffffff16021790555081600660016002811062000139577f4e487b7100000000000000000000000000000000000000000000000000000000600052603260045260246000fd5b0160006101000a81548173ffffffffffffffffffffffffffffffffffffffff021916908373ffffffffffffffffffffffffffffffffffffffff16021790555080600560006101000a81548173ffffffffffffffffffffffffffffffffffffffff021916908373ffffffffffffffffffffffffffffffffffffffff16021790555042600381905550620002147fb19546dff01e856fb3f010c267a7b1c60363cf8a4664e21cc89c26224620214e600460009054906101000a900473ffffffffffffffffffffffffffffffffffffffff166200028160201b60201c565b620002467f241ecf16d79d0f8dbfb92cbc07fe17840425976cf0667f022fe9877caa831b08846200028160201b60201c565b620002787f241ecf16d79d0f8dbfb92cbc07fe17840425976cf0667f022fe9877caa831b08836200028160201b60201c565b505050620004b5565b6200029382826200029760201b60201c565b5050565b620002a982826200038860201b60201c565b6200038457600160008084815260200190815260200160002060000160008373ffffffffffffffffffffffffffffffffffffffff1673ffffffffffffffffffffffffffffffffffffffff16815260200190815260200160002060006101000a81548160ff02191690831515021790555062000329620003f260201b60201c565b73ffffffffffffffffffffffffffffffffffffffff168173ffffffffffffffffffffffffffffffffffffffff16837f2f8788117e7eff1d82e926ec794901d17c78024a50270940304540a733656f0d60405160405180910390a45b5050565b600080600084815260200190815260200160002060000160008373ffffffffffffffffffffffffffffffffffffffff1673ffffffffffffffffffffffffffffffffffffffff16815260200190815260200160002060009054906101000a900460ff16905092915050565b600033905090565b6000815190506200040b816200049b565b92915050565b6000806000606084860312156200042757600080fd5b60006200043786828701620003fa565b93505060206200044a86828701620003fa565b92505060406200045d86828701620003fa565b9150509250925092565b600062000474826200047b565b9050919050565b600073ffffffffffffffffffffffffffffffffffffffff82169050919050565b620004a68162000467565b8114620004b257600080fd5b50565b611ea180620004c56000396000f3fe608060405234801561001057600080fd5b50600436106101005760003560e01c806391d1485411610097578063d547741f11610066578063d547741f1461029d578063e58378bb146102b9578063e59d6cd5146102d7578063ec87621c146102f557610100565b806391d1485414610213578063a217fddf14610243578063b2bdfa7b14610261578063cd38aa871461027f57610100565b806336568abe116100d357806336568abe1461019f578063553669b6146101bb578063643e2bf1146101d957806367dd74ca146101f757610100565b806301ffc9a714610105578063248a9ca314610135578063259aef86146101655780632f2ff15d14610183575b600080fd5b61011f600480360381019061011a9190611468565b610313565b60405161012c9190611996565b60405180910390f35b61014f600480360381019061014a9190611403565b61038d565b60405161015c91906119b1565b60405180910390f35b61016d6103ac565b60405161017a9190611996565b60405180910390f35b61019d6004803603810190610198919061142c565b6105ad565b005b6101b960048036038101906101b4919061142c565b6105d6565b005b6101c3610659565b6040516101d09190611b0e565b60405180910390f35b6101e161065f565b6040516101ee919061191b565b60405180910390f35b610211600480360381019061020c9190611491565b610685565b005b61022d6004803603810190610228919061142c565b6108e3565b60405161023a9190611996565b60405180910390f35b61024b61094d565b60405161025891906119b1565b60405180910390f35b610269610954565b604051610276919061191b565b60405180910390f35b61028761097a565b604051610294919061191b565b60405180910390f35b6102b760048036038101906102b2919061142c565b610cc5565b005b6102c1610cee565b6040516102ce91906119b1565b60405180910390f35b6102df610d12565b6040516102ec9190611b0e565b60405180910390f35b6102fd610d18565b60405161030a91906119b1565b60405180910390f35b60007f7965db0b000000000000000000000000000000000000000000000000000000007bffffffffffffffffffffffffffffffffffffffffffffffffffffffff1916827bffffffffffffffffffffffffffffffffffffffffffffffffffffffff19161480610386575061038582610d3c565b5b9050919050565b6000806000838152602001908152602001600020600101549050919050565b60006103d87fb19546dff01e856fb3f010c267a7b1c60363cf8a4664e21cc89c26224620214e336108e3565b610417576040517f08c379a000000000000000000000000000000000000000000000000000000000815260040161040e90611a8e565b60405180910390fd5b6000600560009054906101000a900473ffffffffffffffffffffffffffffffffffffffff1690506002548173ffffffffffffffffffffffffffffffffffffffff166370a08231306040518263ffffffff1660e01b815260040161047a919061191b565b60206040518083038186803b15801561049257600080fd5b505afa1580156104a6573d6000803e3d6000fd5b505050506040513d601f19601f820116820180604052508101906104ca91906114ba565b101561050b576040517f08c379a000000000000000000000000000000000000000000000000000000000815260040161050290611ace565b60405180910390fd5b8073ffffffffffffffffffffffffffffffffffffffff166323b872dd30336002546040518463ffffffff1660e01b815260040161054a93929190611936565b602060405180830381600087803b15801561056457600080fd5b505af1158015610578573d6000803e3d6000fd5b505050506040513d601f19601f8201168201806040525081019061059c91906113da565b506000600281905550600191505090565b6105b68261038d565b6105c7816105c2610da6565b610dae565b6105d18383610e4b565b505050565b6105de610da6565b73ffffffffffffffffffffffffffffffffffffffff168173ffffffffffffffffffffffffffffffffffffffff161461064b576040517f08c379a000000000000000000000000000000000000000000000000000000000815260040161064290611aee565b60405180910390fd5b6106558282610f2b565b5050565b60035481565b600560009054906101000a900473ffffffffffffffffffffffffffffffffffffffff1681565b6000600560009054906101000a900473ffffffffffffffffffffffffffffffffffffffff1690508160146106b99190611ba6565b8173ffffffffffffffffffffffffffffffffffffffff166370a08231336040518263ffffffff1660e01b81526004016106f2919061191b565b60206040518083038186803b15801561070a57600080fd5b505afa15801561071e573d6000803e3d6000fd5b505050506040513d601f19601f8201168201806040525081019061074291906114ba565b1015610783576040517f08c379a000000000000000000000000000000000000000000000000000000000815260040161077a90611a6e565b60405180910390fd5b8073ffffffffffffffffffffffffffffffffffffffff166323b872dd33306014866107ae9190611ba6565b6040518463ffffffff1660e01b81526004016107cc93929190611936565b602060405180830381600087803b1580156107e657600080fd5b505af11580156107fa573d6000803e3d6000fd5b505050506040513d601f19601f8201168201806040525081019061081e91906113da565b5060138261082c9190611ba6565b6001600082825461083d9190611b50565b9250508190555081600260008282546108569190611b50565b9250508190555060005b828110156108de576008339080600181540180825580915050600190039060005260206000200160009091909190916101000a81548173ffffffffffffffffffffffffffffffffffffffff021916908373ffffffffffffffffffffffffffffffffffffffff16021790555080806108d690611d0f565b915050610860565b505050565b600080600084815260200190815260200160002060000160008373ffffffffffffffffffffffffffffffffffffffff1673ffffffffffffffffffffffffffffffffffffffff16815260200190815260200160002060009054906101000a900460ff16905092915050565b6000801b81565b600460009054906101000a900473ffffffffffffffffffffffffffffffffffffffff1681565b60006109a67fb19546dff01e856fb3f010c267a7b1c60363cf8a4664e21cc89c26224620214e336108e3565b806109d757506109d67f241ecf16d79d0f8dbfb92cbc07fe17840425976cf0667f022fe9877caa831b08336108e3565b5b610a16576040517f08c379a0000000000000000000000000000000000000000000000000000000008152600401610a0d90611a2e565b60405180910390fd5b61012c60035442610a279190611c00565b1015610a68576040517f08c379a0000000000000000000000000000000000000000000000000000000008152600401610a5f906119ee565b60405180910390fd5b426003819055506000600560009054906101000a900473ffffffffffffffffffffffffffffffffffffffff1690506001548173ffffffffffffffffffffffffffffffffffffffff166370a08231306040518263ffffffff1660e01b8152600401610ad2919061191b565b60206040518083038186803b158015610aea57600080fd5b505afa158015610afe573d6000803e3d6000fd5b505050506040513d601f19601f82011682018060405250810190610b2291906114ba565b1015610b63576040517f08c379a0000000000000000000000000000000000000000000000000000000008152600401610b5a90611aae565b60405180910390fd5b60006008610b7560088054905061100c565b81548110610bac577f4e487b7100000000000000000000000000000000000000000000000000000000600052603260045260246000fd5b9060005260206000200160009054906101000a900473ffffffffffffffffffffffffffffffffffffffff1690508173ffffffffffffffffffffffffffffffffffffffff1663a9059cbb826001546040518363ffffffff1660e01b8152600401610c1692919061196d565b602060405180830381600087803b158015610c3057600080fd5b505af1158015610c44573d6000803e3d6000fd5b505050506040513d601f19601f82011682018060405250810190610c6891906113da565b610ca7576040517f08c379a0000000000000000000000000000000000000000000000000000000008152600401610c9e90611a4e565b60405180910390fd5b600060018190555060086000610cbd919061131e565b809250505090565b610cce8261038d565b610cdf81610cda610da6565b610dae565b610ce98383610f2b565b505050565b7fb19546dff01e856fb3f010c267a7b1c60363cf8a4664e21cc89c26224620214e81565b60015481565b7f241ecf16d79d0f8dbfb92cbc07fe17840425976cf0667f022fe9877caa831b0881565b60007f01ffc9a7000000000000000000000000000000000000000000000000000000007bffffffffffffffffffffffffffffffffffffffffffffffffffffffff1916827bffffffffffffffffffffffffffffffffffffffffffffffffffffffff1916149050919050565b600033905090565b610db882826108e3565b610e4757610ddd8173ffffffffffffffffffffffffffffffffffffffff166014611024565b610deb8360001c6020611024565b604051602001610dfc9291906118e1565b6040516020818303038152906040526040517f08c379a0000000000000000000000000000000000000000000000000000000008152600401610e3e91906119cc565b60405180910390fd5b5050565b610e5582826108e3565b610f2757600160008084815260200190815260200160002060000160008373ffffffffffffffffffffffffffffffffffffffff1673ffffffffffffffffffffffffffffffffffffffff16815260200190815260200160002060006101000a81548160ff021916908315150217905550610ecc610da6565b73ffffffffffffffffffffffffffffffffffffffff168173ffffffffffffffffffffffffffffffffffffffff16837f2f8788117e7eff1d82e926ec794901d17c78024a50270940304540a733656f0d60405160405180910390a45b5050565b610f3582826108e3565b1561100857600080600084815260200190815260200160002060000160008373ffffffffffffffffffffffffffffffffffffffff1673ffffffffffffffffffffffffffffffffffffffff16815260200190815260200160002060006101000a81548160ff021916908315150217905550610fad610da6565b73ffffffffffffffffffffffffffffffffffffffff168173ffffffffffffffffffffffffffffffffffffffff16837ff6391f5c32d9c69d2a47ea670b442974b53935d1edc7fd64eb21e047a839171b60405160405180910390a45b5050565b6000816203bc0161101d9190611d58565b9050919050565b6060600060028360026110379190611ba6565b6110419190611b50565b67ffffffffffffffff811115611080577f4e487b7100000000000000000000000000000000000000000000000000000000600052604160045260246000fd5b6040519080825280601f01601f1916602001820160405280156110b25781602001600182028036833780820191505090505b5090507f300000000000000000000000000000000000000000000000000000000000000081600081518110611110577f4e487b7100000000000000000000000000000000000000000000000000000000600052603260045260246000fd5b60200101907effffffffffffffffffffffffffffffffffffffffffffffffffffffffffffff1916908160001a9053507f78000000000000000000000000000000000000000000000000000000000000008160018151811061119a577f4e487b7100000000000000000000000000000000000000000000000000000000600052603260045260246000fd5b60200101907effffffffffffffffffffffffffffffffffffffffffffffffffffffffffffff1916908160001a905350600060018460026111da9190611ba6565b6111e49190611b50565b90505b60018111156112d0577f3031323334353637383961626364656600000000000000000000000000000000600f86166010811061124c577f4e487b7100000000000000000000000000000000000000000000000000000000600052603260045260246000fd5b1a60f81b828281518110611289577f4e487b7100000000000000000000000000000000000000000000000000000000600052603260045260246000fd5b60200101907effffffffffffffffffffffffffffffffffffffffffffffffffffffffffffff1916908160001a905350600485901c9450806112c990611ce5565b90506111e7565b5060008414611314576040517f08c379a000000000000000000000000000000000000000000000000000000000815260040161130b90611a0e565b60405180910390fd5b8091505092915050565b508054600082559060005260206000209081019061133c919061133f565b50565b5b80821115611358576000816000905550600101611340565b5090565b60008135905061136b81611df8565b92915050565b60008151905061138081611e0f565b92915050565b60008135905061139581611e26565b92915050565b6000813590506113aa81611e3d565b92915050565b6000813590506113bf81611e54565b92915050565b6000815190506113d481611e54565b92915050565b6000602082840312156113ec57600080fd5b60006113fa84828501611371565b91505092915050565b60006020828403121561141557600080fd5b600061142384828501611386565b91505092915050565b6000806040838503121561143f57600080fd5b600061144d85828601611386565b925050602061145e8582860161135c565b9150509250929050565b60006020828403121561147a57600080fd5b60006114888482850161139b565b91505092915050565b6000602082840312156114a357600080fd5b60006114b1848285016113b0565b91505092915050565b6000602082840312156114cc57600080fd5b60006114da848285016113c5565b91505092915050565b6114ec81611c34565b82525050565b6114fb81611c46565b82525050565b61150a81611c52565b82525050565b600061151b82611b29565b6115258185611b34565b9350611535818560208601611cb2565b61153e81611de7565b840191505092915050565b600061155482611b29565b61155e8185611b45565b935061156e818560208601611cb2565b80840191505092915050565b6000611587601b83611b34565b91507f4e6f7420656e6f7567682074696d6520686173207061737365642100000000006000830152602082019050919050565b60006115c7602083611b34565b91507f537472696e67733a20686578206c656e67746820696e73756666696369656e746000830152602082019050919050565b6000611607602c83611b34565b91507f726571756972657320656974686572206f776e6572206f72206d616e6167657260008301527f207065726d697373696f6e7300000000000000000000000000000000000000006020830152604082019050919050565b600061166d601f83611b34565b91507f4661696c656420746f206177617264206c6f74746572792077696e6e65722e006000830152602082019050919050565b60006116ad603183611b34565b91507f696e73756666696369656e7420746f6b656e2062616c616e63652e205469636b60008301527f657473203230204c554b5420656163682e0000000000000000000000000000006020830152604082019050919050565b6000611713601a83611b34565b91507f7265717569726573206f776e6572207065726d697373696f6e730000000000006000830152602082019050919050565b6000611753601983611b34565b91507f4e6f7420656e6f756768206d6f6e657920746f206769766521000000000000006000830152602082019050919050565b6000611793602783611b34565b91507f757361676520666565732062616c616e6365206c6f776572207468616e20657860008301527f7065637465642e000000000000000000000000000000000000000000000000006020830152604082019050919050565b60006117f9601783611b45565b91507f416363657373436f6e74726f6c3a206163636f756e74200000000000000000006000830152601782019050919050565b6000611839601183611b45565b91507f206973206d697373696e6720726f6c65200000000000000000000000000000006000830152601182019050919050565b6000611879602f83611b34565b91507f416363657373436f6e74726f6c3a2063616e206f6e6c792072656e6f756e636560008301527f20726f6c657320666f722073656c6600000000000000000000000000000000006020830152604082019050919050565b6118db81611ca8565b82525050565b60006118ec826117ec565b91506118f88285611549565b91506119038261182c565b915061190f8284611549565b91508190509392505050565b600060208201905061193060008301846114e3565b92915050565b600060608201905061194b60008301866114e3565b61195860208301856114e3565b61196560408301846118d2565b949350505050565b600060408201905061198260008301856114e3565b61198f60208301846118d2565b9392505050565b60006020820190506119ab60008301846114f2565b92915050565b60006020820190506119c66000830184611501565b92915050565b600060208201905081810360008301526119e68184611510565b905092915050565b60006020820190508181036000830152611a078161157a565b9050919050565b60006020820190508181036000830152611a27816115ba565b9050919050565b60006020820190508181036000830152611a47816115fa565b9050919050565b60006020820190508181036000830152611a6781611660565b9050919050565b60006020820190508181036000830152611a87816116a0565b9050919050565b60006020820190508181036000830152611aa781611706565b9050919050565b60006020820190508181036000830152611ac781611746565b9050919050565b60006020820190508181036000830152611ae781611786565b9050919050565b60006020820190508181036000830152611b078161186c565b9050919050565b6000602082019050611b2360008301846118d2565b92915050565b600081519050919050565b600082825260208201905092915050565b600081905092915050565b6000611b5b82611ca8565b9150611b6683611ca8565b9250827fffffffffffffffffffffffffffffffffffffffffffffffffffffffffffffffff03821115611b9b57611b9a611d89565b5b828201905092915050565b6000611bb182611ca8565b9150611bbc83611ca8565b9250817fffffffffffffffffffffffffffffffffffffffffffffffffffffffffffffffff0483118215151615611bf557611bf4611d89565b5b828202905092915050565b6000611c0b82611ca8565b9150611c1683611ca8565b925082821015611c2957611c28611d89565b5b828203905092915050565b6000611c3f82611c88565b9050919050565b60008115159050919050565b6000819050919050565b60007fffffffff0000000000000000000000000000000000000000000000000000000082169050919050565b600073ffffffffffffffffffffffffffffffffffffffff82169050919050565b6000819050919050565b60005b83811015611cd0578082015181840152602081019050611cb5565b83811115611cdf576000848401525b50505050565b6000611cf082611ca8565b91506000821415611d0457611d03611d89565b5b600182039050919050565b6000611d1a82611ca8565b91507fffffffffffffffffffffffffffffffffffffffffffffffffffffffffffffffff821415611d4d57611d4c611d89565b5b600182019050919050565b6000611d6382611ca8565b9150611d6e83611ca8565b925082611d7e57611d7d611db8565b5b828206905092915050565b7f4e487b7100000000000000000000000000000000000000000000000000000000600052601160045260246000fd5b7f4e487b7100000000000000000000000000000000000000000000000000000000600052601260045260246000fd5b6000601f19601f8301169050919050565b611e0181611c34565b8114611e0c57600080fd5b50565b611e1881611c46565b8114611e2357600080fd5b50565b611e2f81611c52565b8114611e3a57600080fd5b50565b611e4681611c5c565b8114611e5157600080fd5b50565b611e5d81611ca8565b8114611e6857600080fd5b5056fea26469706673582212202cc9366221a27b3769e73b48e261fba28a0667761d9b641133e4e0b3745ada7164736f6c63430008000033",
  "linkReferences": {},
  "deployedLinkReferences": {}
}