{
  "_format": "hh-sol-artifact-1",
  "contractName": "Lottery",
  "sourceName": "contracts/Lottery.sol",
  "abi": [
    {
      "inputs": [
        {
          "internalType": "address",
          "name": "owner",
          "type": "address"
        },
        {
          "internalType": "address",
          "name": "manager1",
          "type": "address"
        },
        {
          "internalType": "address",
          "name": "manager2",
          "type": "address"
        },
        {
          "internalType": "address",
          "name": "mokAddress",
          "type": "address"
        }
      ],
      "stateMutability": "nonpayable",
      "type": "constructor"
    },
    {
      "inputs": [
        {
          "internalType": "uint256",
          "name": "amount",
          "type": "uint256"
        }
      ],
      "name": "buyTicket",
      "outputs": [],
      "stateMutability": "nonpayable",
      "type": "function"
    },
    {
      "inputs": [],
      "name": "chooseWinner",
      "outputs": [
        {
          "internalType": "address",
          "name": "",
          "type": "address"
        }
      ],
      "stateMutability": "nonpayable",
      "type": "function"
    },
    {
      "inputs": [],
      "name": "collectUsageFees",
      "outputs": [
        {
          "internalType": "bool",
          "name": "",
          "type": "bool"
        }
      ],
      "stateMutability": "nonpayable",
      "type": "function"
    },
    {
      "inputs": [],
      "name": "getJackpot",
      "outputs": [
        {
          "internalType": "uint256",
          "name": "",
          "type": "uint256"
        }
      ],
      "stateMutability": "view",
      "type": "function"
    },
    {
      "inputs": [],
      "name": "getNextDrawTime",
      "outputs": [
        {
          "internalType": "uint256",
          "name": "",
          "type": "uint256"
        }
      ],
      "stateMutability": "view",
      "type": "function"
    }
  ],
  "bytecode": "0x60806040523480156200001157600080fd5b50604051620012b4380380620012b48339818101604052810190620000379190620001e0565b6000808190555083600360006101000a81548173ffffffffffffffffffffffffffffffffffffffff021916908373ffffffffffffffffffffffffffffffffffffffff160217905550826004600060028110620000bc577f4e487b7100000000000000000000000000000000000000000000000000000000600052603260045260246000fd5b0160006101000a81548173ffffffffffffffffffffffffffffffffffffffff021916908373ffffffffffffffffffffffffffffffffffffffff16021790555081600460016002811062000138577f4e487b7100000000000000000000000000000000000000000000000000000000600052603260045260246000fd5b0160006101000a81548173ffffffffffffffffffffffffffffffffffffffff021916908373ffffffffffffffffffffffffffffffffffffffff16021790555080600660006101000a81548173ffffffffffffffffffffffffffffffffffffffff021916908373ffffffffffffffffffffffffffffffffffffffff16021790555042600281905550505050506200029a565b600081519050620001da8162000280565b92915050565b60008060008060808587031215620001f757600080fd5b60006200020787828801620001c9565b94505060206200021a87828801620001c9565b93505060406200022d87828801620001c9565b92505060606200024087828801620001c9565b91505092959194509250565b6000620002598262000260565b9050919050565b600073ffffffffffffffffffffffffffffffffffffffff82169050919050565b6200028b816200024c565b81146200029757600080fd5b50565b61100a80620002aa6000396000f3fe608060405234801561001057600080fd5b50600436106100575760003560e01c8063259aef861461005c57806367dd74ca1461007a5780639329066c14610096578063cd38aa87146100b4578063ecfea5d5146100d2575b600080fd5b6100646100f0565b6040516100719190610cbb565b60405180910390f35b610094600480360381019061008f9190610a5b565b6102ea565b005b61009e61054f565b6040516100ab9190610d76565b60405180910390f35b6100bc610558565b6040516100c99190610c40565b60405180910390f35b6100da610986565b6040516100e79190610d76565b60405180910390f35b6000600360009054906101000a900473ffffffffffffffffffffffffffffffffffffffff1673ffffffffffffffffffffffffffffffffffffffff163373ffffffffffffffffffffffffffffffffffffffff161461014c57600080fd5b6000600660009054906101000a900473ffffffffffffffffffffffffffffffffffffffff1690506001548173ffffffffffffffffffffffffffffffffffffffff166370a08231306040518263ffffffff1660e01b81526004016101af9190610c40565b60206040518083038186803b1580156101c757600080fd5b505afa1580156101db573d6000803e3d6000fd5b505050506040513d601f19601f820116820180604052508101906101ff9190610a84565b101561020a57600080fd5b8073ffffffffffffffffffffffffffffffffffffffff166323b872dd30336001546040518463ffffffff1660e01b815260040161024993929190610c5b565b602060405180830381600087803b15801561026357600080fd5b505af1158015610277573d6000803e3d6000fd5b505050506040513d601f19601f8201168201806040525081019061029b9190610a32565b6102da576040517f08c379a00000000000000000000000000000000000000000000000000000000081526004016102d190610d36565b60405180910390fd5b6000600181905550600191505090565b6000600660009054906101000a900473ffffffffffffffffffffffffffffffffffffffff16905081601461031e9190610df8565b8173ffffffffffffffffffffffffffffffffffffffff166370a08231336040518263ffffffff1660e01b81526004016103579190610c40565b60206040518083038186803b15801561036f57600080fd5b505afa158015610383573d6000803e3d6000fd5b505050506040513d601f19601f820116820180604052508101906103a79190610a84565b10156103b257600080fd5b8073ffffffffffffffffffffffffffffffffffffffff166323b872dd33306014866103dd9190610df8565b6040518463ffffffff1660e01b81526004016103fb93929190610c5b565b602060405180830381600087803b15801561041557600080fd5b505af1158015610429573d6000803e3d6000fd5b505050506040513d601f19601f8201168201806040525081019061044d9190610a32565b61048c576040517f08c379a000000000000000000000000000000000000000000000000000000000815260040161048390610d16565b60405180910390fd5b6013826104999190610df8565b6000808282546104a99190610da2565b9250508190555081600160008282546104c29190610da2565b9250508190555060005b8281101561054a576007339080600181540180825580915050600190039060005260206000200160009091909190916101000a81548173ffffffffffffffffffffffffffffffffffffffff021916908373ffffffffffffffffffffffffffffffffffffffff160217905550808061054290610ece565b9150506104cc565b505050565b60008054905090565b6000600360009054906101000a900473ffffffffffffffffffffffffffffffffffffffff1673ffffffffffffffffffffffffffffffffffffffff163373ffffffffffffffffffffffffffffffffffffffff16148061063d575060046000600281106105ec577f4e487b7100000000000000000000000000000000000000000000000000000000600052603260045260246000fd5b0160009054906101000a900473ffffffffffffffffffffffffffffffffffffffff1673ffffffffffffffffffffffffffffffffffffffff163373ffffffffffffffffffffffffffffffffffffffff16145b806106cf5750600460016002811061067e577f4e487b7100000000000000000000000000000000000000000000000000000000600052603260045260246000fd5b0160009054906101000a900473ffffffffffffffffffffffffffffffffffffffff1673ffffffffffffffffffffffffffffffffffffffff163373ffffffffffffffffffffffffffffffffffffffff16145b6106d857600080fd5b61012c600254426106e99190610e52565b101561072a576040517f08c379a000000000000000000000000000000000000000000000000000000000815260040161072190610cd6565b60405180910390fd5b426002819055506000600660009054906101000a900473ffffffffffffffffffffffffffffffffffffffff1690506000548173ffffffffffffffffffffffffffffffffffffffff166370a08231306040518263ffffffff1660e01b81526004016107949190610c40565b60206040518083038186803b1580156107ac57600080fd5b505afa1580156107c0573d6000803e3d6000fd5b505050506040513d601f19601f820116820180604052508101906107e49190610a84565b1015610825576040517f08c379a000000000000000000000000000000000000000000000000000000000815260040161081c90610d56565b60405180910390fd5b6000600761083760078054905061099d565b8154811061086e577f4e487b7100000000000000000000000000000000000000000000000000000000600052603260045260246000fd5b9060005260206000200160009054906101000a900473ffffffffffffffffffffffffffffffffffffffff1690508173ffffffffffffffffffffffffffffffffffffffff1663a9059cbb826000546040518363ffffffff1660e01b81526004016108d8929190610c92565b602060405180830381600087803b1580156108f257600080fd5b505af1158015610906573d6000803e3d6000fd5b505050506040513d601f19601f8201168201806040525081019061092a9190610a32565b610969576040517f08c379a000000000000000000000000000000000000000000000000000000000815260040161096090610cf6565b60405180910390fd5b600080819055506007600061097e91906109b5565b809250505090565b600061012c6002546109989190610da2565b905090565b6000816203bc016109ae9190610f17565b9050919050565b50805460008255906000526020600020908101906109d391906109d6565b50565b5b808211156109ef5760008160009055506001016109d7565b5090565b600081519050610a0281610fa6565b92915050565b600081359050610a1781610fbd565b92915050565b600081519050610a2c81610fbd565b92915050565b600060208284031215610a4457600080fd5b6000610a52848285016109f3565b91505092915050565b600060208284031215610a6d57600080fd5b6000610a7b84828501610a08565b91505092915050565b600060208284031215610a9657600080fd5b6000610aa484828501610a1d565b91505092915050565b610ab681610e86565b82525050565b610ac581610e98565b82525050565b6000610ad8601b83610d91565b91507f4e6f7420656e6f7567682074696d6520686173207061737365642100000000006000830152602082019050919050565b6000610b18601f83610d91565b91507f4661696c656420746f206177617264206c6f74746572792077696e6e65722e006000830152602082019050919050565b6000610b58603283610d91565b91507f4661696c656420746f207472616e73666572204d6f6b207061796d656e74207460008301527f6f204c6f747465727920636f6e747261637400000000000000000000000000006020830152604082019050919050565b6000610bbe601c83610d91565b91507f4661696c656420746f20636f6c6c6563742075736167652066656573000000006000830152602082019050919050565b6000610bfe601983610d91565b91507f4e6f7420656e6f756768206d6f6e657920746f206769766521000000000000006000830152602082019050919050565b610c3a81610ec4565b82525050565b6000602082019050610c556000830184610aad565b92915050565b6000606082019050610c706000830186610aad565b610c7d6020830185610aad565b610c8a6040830184610c31565b949350505050565b6000604082019050610ca76000830185610aad565b610cb46020830184610c31565b9392505050565b6000602082019050610cd06000830184610abc565b92915050565b60006020820190508181036000830152610cef81610acb565b9050919050565b60006020820190508181036000830152610d0f81610b0b565b9050919050565b60006020820190508181036000830152610d2f81610b4b565b9050919050565b60006020820190508181036000830152610d4f81610bb1565b9050919050565b60006020820190508181036000830152610d6f81610bf1565b9050919050565b6000602082019050610d8b6000830184610c31565b92915050565b600082825260208201905092915050565b6000610dad82610ec4565b9150610db883610ec4565b9250827fffffffffffffffffffffffffffffffffffffffffffffffffffffffffffffffff03821115610ded57610dec610f48565b5b828201905092915050565b6000610e0382610ec4565b9150610e0e83610ec4565b9250817fffffffffffffffffffffffffffffffffffffffffffffffffffffffffffffffff0483118215151615610e4757610e46610f48565b5b828202905092915050565b6000610e5d82610ec4565b9150610e6883610ec4565b925082821015610e7b57610e7a610f48565b5b828203905092915050565b6000610e9182610ea4565b9050919050565b60008115159050919050565b600073ffffffffffffffffffffffffffffffffffffffff82169050919050565b6000819050919050565b6000610ed982610ec4565b91507fffffffffffffffffffffffffffffffffffffffffffffffffffffffffffffffff821415610f0c57610f0b610f48565b5b600182019050919050565b6000610f2282610ec4565b9150610f2d83610ec4565b925082610f3d57610f3c610f77565b5b828206905092915050565b7f4e487b7100000000000000000000000000000000000000000000000000000000600052601160045260246000fd5b7f4e487b7100000000000000000000000000000000000000000000000000000000600052601260045260246000fd5b610faf81610e98565b8114610fba57600080fd5b50565b610fc681610ec4565b8114610fd157600080fd5b5056fea26469706673582212200c928ea74fba0b42dbcd69c42d5743bdf5fafc26b647d88dbfbd937d3f54ac3c64736f6c63430008000033",
  "linkReferences": {},
  "deployedLinkReferences": {}
}