{
  "_format": "hh-sol-artifact-1",
  "contractName": "Lottery",
  "sourceName": "contracts/Lottery.sol",
  "abi": [
    {
      "inputs": [
        {
          "internalType": "address",
          "name": "manager1",
          "type": "address"
        },
        {
          "internalType": "address",
          "name": "manager2",
          "type": "address"
        },
        {
          "internalType": "address",
          "name": "mokAddress",
          "type": "address"
        }
      ],
      "stateMutability": "nonpayable",
      "type": "constructor"
    },
    {
      "anonymous": false,
      "inputs": [
        {
          "indexed": true,
          "internalType": "bytes32",
          "name": "role",
          "type": "bytes32"
        },
        {
          "indexed": true,
          "internalType": "bytes32",
          "name": "previousAdminRole",
          "type": "bytes32"
        },
        {
          "indexed": true,
          "internalType": "bytes32",
          "name": "newAdminRole",
          "type": "bytes32"
        }
      ],
      "name": "RoleAdminChanged",
      "type": "event"
    },
    {
      "anonymous": false,
      "inputs": [
        {
          "indexed": true,
          "internalType": "bytes32",
          "name": "role",
          "type": "bytes32"
        },
        {
          "indexed": true,
          "internalType": "address",
          "name": "account",
          "type": "address"
        },
        {
          "indexed": true,
          "internalType": "address",
          "name": "sender",
          "type": "address"
        }
      ],
      "name": "RoleGranted",
      "type": "event"
    },
    {
      "anonymous": false,
      "inputs": [
        {
          "indexed": true,
          "internalType": "bytes32",
          "name": "role",
          "type": "bytes32"
        },
        {
          "indexed": true,
          "internalType": "address",
          "name": "account",
          "type": "address"
        },
        {
          "indexed": true,
          "internalType": "address",
          "name": "sender",
          "type": "address"
        }
      ],
      "name": "RoleRevoked",
      "type": "event"
    },
    {
      "inputs": [],
      "name": "DEFAULT_ADMIN_ROLE",
      "outputs": [
        {
          "internalType": "bytes32",
          "name": "",
          "type": "bytes32"
        }
      ],
      "stateMutability": "view",
      "type": "function"
    },
    {
      "inputs": [],
      "name": "MANAGER_ROLE",
      "outputs": [
        {
          "internalType": "bytes32",
          "name": "",
          "type": "bytes32"
        }
      ],
      "stateMutability": "view",
      "type": "function"
    },
    {
      "inputs": [],
      "name": "OWNER_ROLE",
      "outputs": [
        {
          "internalType": "bytes32",
          "name": "",
          "type": "bytes32"
        }
      ],
      "stateMutability": "view",
      "type": "function"
    },
    {
      "inputs": [],
      "name": "_jackpot",
      "outputs": [
        {
          "internalType": "uint256",
          "name": "",
          "type": "uint256"
        }
      ],
      "stateMutability": "view",
      "type": "function"
    },
    {
      "inputs": [],
      "name": "_last_draw_time",
      "outputs": [
        {
          "internalType": "uint256",
          "name": "",
          "type": "uint256"
        }
      ],
      "stateMutability": "view",
      "type": "function"
    },
    {
      "inputs": [
        {
          "internalType": "uint256",
          "name": "",
          "type": "uint256"
        }
      ],
      "name": "_managers",
      "outputs": [
        {
          "internalType": "address",
          "name": "",
          "type": "address"
        }
      ],
      "stateMutability": "view",
      "type": "function"
    },
    {
      "inputs": [],
      "name": "_mok_address",
      "outputs": [
        {
          "internalType": "address",
          "name": "",
          "type": "address"
        }
      ],
      "stateMutability": "view",
      "type": "function"
    },
    {
      "inputs": [],
      "name": "_owner",
      "outputs": [
        {
          "internalType": "address",
          "name": "",
          "type": "address"
        }
      ],
      "stateMutability": "view",
      "type": "function"
    },
    {
      "inputs": [
        {
          "internalType": "uint256",
          "name": "",
          "type": "uint256"
        }
      ],
      "name": "_players",
      "outputs": [
        {
          "internalType": "address",
          "name": "",
          "type": "address"
        }
      ],
      "stateMutability": "view",
      "type": "function"
    },
    {
      "inputs": [],
      "name": "_usage_fees",
      "outputs": [
        {
          "internalType": "uint256",
          "name": "",
          "type": "uint256"
        }
      ],
      "stateMutability": "view",
      "type": "function"
    },
    {
      "inputs": [
        {
          "internalType": "uint256",
          "name": "amount",
          "type": "uint256"
        }
      ],
      "name": "buyTicket",
      "outputs": [],
      "stateMutability": "nonpayable",
      "type": "function"
    },
    {
      "inputs": [],
      "name": "chooseWinner",
      "outputs": [
        {
          "internalType": "address",
          "name": "",
          "type": "address"
        }
      ],
      "stateMutability": "nonpayable",
      "type": "function"
    },
    {
      "inputs": [],
      "name": "collectUsageFees",
      "outputs": [
        {
          "internalType": "bool",
          "name": "",
          "type": "bool"
        }
      ],
      "stateMutability": "nonpayable",
      "type": "function"
    },
    {
      "inputs": [
        {
          "internalType": "bytes32",
          "name": "role",
          "type": "bytes32"
        }
      ],
      "name": "getRoleAdmin",
      "outputs": [
        {
          "internalType": "bytes32",
          "name": "",
          "type": "bytes32"
        }
      ],
      "stateMutability": "view",
      "type": "function"
    },
    {
      "inputs": [
        {
          "internalType": "bytes32",
          "name": "role",
          "type": "bytes32"
        },
        {
          "internalType": "address",
          "name": "account",
          "type": "address"
        }
      ],
      "name": "grantRole",
      "outputs": [],
      "stateMutability": "nonpayable",
      "type": "function"
    },
    {
      "inputs": [
        {
          "internalType": "bytes32",
          "name": "role",
          "type": "bytes32"
        },
        {
          "internalType": "address",
          "name": "account",
          "type": "address"
        }
      ],
      "name": "hasRole",
      "outputs": [
        {
          "internalType": "bool",
          "name": "",
          "type": "bool"
        }
      ],
      "stateMutability": "view",
      "type": "function"
    },
    {
      "inputs": [
        {
          "internalType": "bytes32",
          "name": "role",
          "type": "bytes32"
        },
        {
          "internalType": "address",
          "name": "account",
          "type": "address"
        }
      ],
      "name": "renounceRole",
      "outputs": [],
      "stateMutability": "nonpayable",
      "type": "function"
    },
    {
      "inputs": [
        {
          "internalType": "bytes32",
          "name": "role",
          "type": "bytes32"
        },
        {
          "internalType": "address",
          "name": "account",
          "type": "address"
        }
      ],
      "name": "revokeRole",
      "outputs": [],
      "stateMutability": "nonpayable",
      "type": "function"
    },
    {
      "inputs": [
        {
          "internalType": "bytes4",
          "name": "interfaceId",
          "type": "bytes4"
        }
      ],
      "name": "supportsInterface",
      "outputs": [
        {
          "internalType": "bool",
          "name": "",
          "type": "bool"
        }
      ],
      "stateMutability": "view",
      "type": "function"
    }
  ],
  "bytecode": "0x60806040523480156200001157600080fd5b506040516200248038038062002480833981810160405281019062000037919062000411565b600060018190555033600460006101000a81548173ffffffffffffffffffffffffffffffffffffffff021916908373ffffffffffffffffffffffffffffffffffffffff160217905550826006600060028110620000bd577f4e487b7100000000000000000000000000000000000000000000000000000000600052603260045260246000fd5b0160006101000a81548173ffffffffffffffffffffffffffffffffffffffff021916908373ffffffffffffffffffffffffffffffffffffffff16021790555081600660016002811062000139577f4e487b7100000000000000000000000000000000000000000000000000000000600052603260045260246000fd5b0160006101000a81548173ffffffffffffffffffffffffffffffffffffffff021916908373ffffffffffffffffffffffffffffffffffffffff16021790555080600560006101000a81548173ffffffffffffffffffffffffffffffffffffffff021916908373ffffffffffffffffffffffffffffffffffffffff16021790555042600381905550620002147fb19546dff01e856fb3f010c267a7b1c60363cf8a4664e21cc89c26224620214e600460009054906101000a900473ffffffffffffffffffffffffffffffffffffffff166200028160201b60201c565b620002467f241ecf16d79d0f8dbfb92cbc07fe17840425976cf0667f022fe9877caa831b08846200028160201b60201c565b620002787f241ecf16d79d0f8dbfb92cbc07fe17840425976cf0667f022fe9877caa831b08836200028160201b60201c565b505050620004b5565b6200029382826200029760201b60201c565b5050565b620002a982826200038860201b60201c565b6200038457600160008084815260200190815260200160002060000160008373ffffffffffffffffffffffffffffffffffffffff1673ffffffffffffffffffffffffffffffffffffffff16815260200190815260200160002060006101000a81548160ff02191690831515021790555062000329620003f260201b60201c565b73ffffffffffffffffffffffffffffffffffffffff168173ffffffffffffffffffffffffffffffffffffffff16837f2f8788117e7eff1d82e926ec794901d17c78024a50270940304540a733656f0d60405160405180910390a45b5050565b600080600084815260200190815260200160002060000160008373ffffffffffffffffffffffffffffffffffffffff1673ffffffffffffffffffffffffffffffffffffffff16815260200190815260200160002060009054906101000a900460ff16905092915050565b600033905090565b6000815190506200040b816200049b565b92915050565b6000806000606084860312156200042757600080fd5b60006200043786828701620003fa565b93505060206200044a86828701620003fa565b92505060406200045d86828701620003fa565b9150509250925092565b600062000474826200047b565b9050919050565b600073ffffffffffffffffffffffffffffffffffffffff82169050919050565b620004a68162000467565b8114620004b257600080fd5b50565b611fbb80620004c56000396000f3fe608060405234801561001057600080fd5b50600436106101215760003560e01c806367dd74ca116100ad578063cd38aa8711610071578063cd38aa871461031e578063d547741f1461033c578063e58378bb14610358578063e59d6cd514610376578063ec87621c1461039457610121565b806367dd74ca1461026657806391d1485414610282578063a217fddf146102b2578063b2bdfa7b146102d0578063bcd674a2146102ee57610121565b80632f2ff15d116100f45780632f2ff15d146101c257806336568abe146101de57806341587823146101fa578063553669b61461022a578063643e2bf11461024857610121565b806301ffc9a714610126578063192ac66b14610156578063248a9ca314610174578063259aef86146101a4575b600080fd5b610140600480360381019061013b9190611582565b6103b2565b60405161014d9190611ab0565b60405180910390f35b61015e61042c565b60405161016b9190611c28565b60405180910390f35b61018e6004803603810190610189919061151d565b610432565b60405161019b9190611acb565b60405180910390f35b6101ac610451565b6040516101b99190611ab0565b60405180910390f35b6101dc60048036038101906101d79190611546565b610652565b005b6101f860048036038101906101f39190611546565b61067b565b005b610214600480360381019061020f91906115ab565b6106fe565b6040516102219190611a35565b60405180910390f35b61023261073d565b60405161023f9190611c28565b60405180910390f35b610250610743565b60405161025d9190611a35565b60405180910390f35b610280600480360381019061027b91906115ab565b610769565b005b61029c60048036038101906102979190611546565b6109c7565b6040516102a99190611ab0565b60405180910390f35b6102ba610a31565b6040516102c79190611acb565b60405180910390f35b6102d8610a38565b6040516102e59190611a35565b60405180910390f35b610308600480360381019061030391906115ab565b610a5e565b6040516103159190611a35565b60405180910390f35b610326610a94565b6040516103339190611a35565b60405180910390f35b61035660048036038101906103519190611546565b610ddf565b005b610360610e08565b60405161036d9190611acb565b60405180910390f35b61037e610e2c565b60405161038b9190611c28565b60405180910390f35b61039c610e32565b6040516103a99190611acb565b60405180910390f35b60007f7965db0b000000000000000000000000000000000000000000000000000000007bffffffffffffffffffffffffffffffffffffffffffffffffffffffff1916827bffffffffffffffffffffffffffffffffffffffffffffffffffffffff19161480610425575061042482610e56565b5b9050919050565b60025481565b6000806000838152602001908152602001600020600101549050919050565b600061047d7fb19546dff01e856fb3f010c267a7b1c60363cf8a4664e21cc89c26224620214e336109c7565b6104bc576040517f08c379a00000000000000000000000000000000000000000000000000000000081526004016104b390611ba8565b60405180910390fd5b6000600560009054906101000a900473ffffffffffffffffffffffffffffffffffffffff1690506002548173ffffffffffffffffffffffffffffffffffffffff166370a08231306040518263ffffffff1660e01b815260040161051f9190611a35565b60206040518083038186803b15801561053757600080fd5b505afa15801561054b573d6000803e3d6000fd5b505050506040513d601f19601f8201168201806040525081019061056f91906115d4565b10156105b0576040517f08c379a00000000000000000000000000000000000000000000000000000000081526004016105a790611be8565b60405180910390fd5b8073ffffffffffffffffffffffffffffffffffffffff166323b872dd30336002546040518463ffffffff1660e01b81526004016105ef93929190611a50565b602060405180830381600087803b15801561060957600080fd5b505af115801561061d573d6000803e3d6000fd5b505050506040513d601f19601f8201168201806040525081019061064191906114f4565b506000600281905550600191505090565b61065b82610432565b61066c81610667610ec0565b610ec8565b6106768383610f65565b505050565b610683610ec0565b73ffffffffffffffffffffffffffffffffffffffff168173ffffffffffffffffffffffffffffffffffffffff16146106f0576040517f08c379a00000000000000000000000000000000000000000000000000000000081526004016106e790611c08565b60405180910390fd5b6106fa8282611045565b5050565b6008818154811061070e57600080fd5b906000526020600020016000915054906101000a900473ffffffffffffffffffffffffffffffffffffffff1681565b60035481565b600560009054906101000a900473ffffffffffffffffffffffffffffffffffffffff1681565b6000600560009054906101000a900473ffffffffffffffffffffffffffffffffffffffff16905081601461079d9190611cc0565b8173ffffffffffffffffffffffffffffffffffffffff166370a08231336040518263ffffffff1660e01b81526004016107d69190611a35565b60206040518083038186803b1580156107ee57600080fd5b505afa158015610802573d6000803e3d6000fd5b505050506040513d601f19601f8201168201806040525081019061082691906115d4565b1015610867576040517f08c379a000000000000000000000000000000000000000000000000000000000815260040161085e90611b88565b60405180910390fd5b8073ffffffffffffffffffffffffffffffffffffffff166323b872dd33306014866108929190611cc0565b6040518463ffffffff1660e01b81526004016108b093929190611a50565b602060405180830381600087803b1580156108ca57600080fd5b505af11580156108de573d6000803e3d6000fd5b505050506040513d601f19601f8201168201806040525081019061090291906114f4565b506013826109109190611cc0565b600160008282546109219190611c6a565b92505081905550816002600082825461093a9190611c6a565b9250508190555060005b828110156109c2576008339080600181540180825580915050600190039060005260206000200160009091909190916101000a81548173ffffffffffffffffffffffffffffffffffffffff021916908373ffffffffffffffffffffffffffffffffffffffff16021790555080806109ba90611e29565b915050610944565b505050565b600080600084815260200190815260200160002060000160008373ffffffffffffffffffffffffffffffffffffffff1673ffffffffffffffffffffffffffffffffffffffff16815260200190815260200160002060009054906101000a900460ff16905092915050565b6000801b81565b600460009054906101000a900473ffffffffffffffffffffffffffffffffffffffff1681565b60068160028110610a6e57600080fd5b016000915054906101000a900473ffffffffffffffffffffffffffffffffffffffff1681565b6000610ac07fb19546dff01e856fb3f010c267a7b1c60363cf8a4664e21cc89c26224620214e336109c7565b80610af15750610af07f241ecf16d79d0f8dbfb92cbc07fe17840425976cf0667f022fe9877caa831b08336109c7565b5b610b30576040517f08c379a0000000000000000000000000000000000000000000000000000000008152600401610b2790611b48565b60405180910390fd5b61012c60035442610b419190611d1a565b1015610b82576040517f08c379a0000000000000000000000000000000000000000000000000000000008152600401610b7990611b08565b60405180910390fd5b426003819055506000600560009054906101000a900473ffffffffffffffffffffffffffffffffffffffff1690506001548173ffffffffffffffffffffffffffffffffffffffff166370a08231306040518263ffffffff1660e01b8152600401610bec9190611a35565b60206040518083038186803b158015610c0457600080fd5b505afa158015610c18573d6000803e3d6000fd5b505050506040513d601f19601f82011682018060405250810190610c3c91906115d4565b1015610c7d576040517f08c379a0000000000000000000000000000000000000000000000000000000008152600401610c7490611bc8565b60405180910390fd5b60006008610c8f600880549050611126565b81548110610cc6577f4e487b7100000000000000000000000000000000000000000000000000000000600052603260045260246000fd5b9060005260206000200160009054906101000a900473ffffffffffffffffffffffffffffffffffffffff1690508173ffffffffffffffffffffffffffffffffffffffff1663a9059cbb826001546040518363ffffffff1660e01b8152600401610d30929190611a87565b602060405180830381600087803b158015610d4a57600080fd5b505af1158015610d5e573d6000803e3d6000fd5b505050506040513d601f19601f82011682018060405250810190610d8291906114f4565b610dc1576040517f08c379a0000000000000000000000000000000000000000000000000000000008152600401610db890611b68565b60405180910390fd5b600060018190555060086000610dd79190611438565b809250505090565b610de882610432565b610df981610df4610ec0565b610ec8565b610e038383611045565b505050565b7fb19546dff01e856fb3f010c267a7b1c60363cf8a4664e21cc89c26224620214e81565b60015481565b7f241ecf16d79d0f8dbfb92cbc07fe17840425976cf0667f022fe9877caa831b0881565b60007f01ffc9a7000000000000000000000000000000000000000000000000000000007bffffffffffffffffffffffffffffffffffffffffffffffffffffffff1916827bffffffffffffffffffffffffffffffffffffffffffffffffffffffff1916149050919050565b600033905090565b610ed282826109c7565b610f6157610ef78173ffffffffffffffffffffffffffffffffffffffff16601461113e565b610f058360001c602061113e565b604051602001610f169291906119fb565b6040516020818303038152906040526040517f08c379a0000000000000000000000000000000000000000000000000000000008152600401610f589190611ae6565b60405180910390fd5b5050565b610f6f82826109c7565b61104157600160008084815260200190815260200160002060000160008373ffffffffffffffffffffffffffffffffffffffff1673ffffffffffffffffffffffffffffffffffffffff16815260200190815260200160002060006101000a81548160ff021916908315150217905550610fe6610ec0565b73ffffffffffffffffffffffffffffffffffffffff168173ffffffffffffffffffffffffffffffffffffffff16837f2f8788117e7eff1d82e926ec794901d17c78024a50270940304540a733656f0d60405160405180910390a45b5050565b61104f82826109c7565b1561112257600080600084815260200190815260200160002060000160008373ffffffffffffffffffffffffffffffffffffffff1673ffffffffffffffffffffffffffffffffffffffff16815260200190815260200160002060006101000a81548160ff0219169083151502179055506110c7610ec0565b73ffffffffffffffffffffffffffffffffffffffff168173ffffffffffffffffffffffffffffffffffffffff16837ff6391f5c32d9c69d2a47ea670b442974b53935d1edc7fd64eb21e047a839171b60405160405180910390a45b5050565b6000816203bc016111379190611e72565b9050919050565b6060600060028360026111519190611cc0565b61115b9190611c6a565b67ffffffffffffffff81111561119a577f4e487b7100000000000000000000000000000000000000000000000000000000600052604160045260246000fd5b6040519080825280601f01601f1916602001820160405280156111cc5781602001600182028036833780820191505090505b5090507f30000000000000000000000000000000000000000000000000000000000000008160008151811061122a577f4e487b7100000000000000000000000000000000000000000000000000000000600052603260045260246000fd5b60200101907effffffffffffffffffffffffffffffffffffffffffffffffffffffffffffff1916908160001a9053507f7800000000000000000000000000000000000000000000000000000000000000816001815181106112b4577f4e487b7100000000000000000000000000000000000000000000000000000000600052603260045260246000fd5b60200101907effffffffffffffffffffffffffffffffffffffffffffffffffffffffffffff1916908160001a905350600060018460026112f49190611cc0565b6112fe9190611c6a565b90505b60018111156113ea577f3031323334353637383961626364656600000000000000000000000000000000600f861660108110611366577f4e487b7100000000000000000000000000000000000000000000000000000000600052603260045260246000fd5b1a60f81b8282815181106113a3577f4e487b7100000000000000000000000000000000000000000000000000000000600052603260045260246000fd5b60200101907effffffffffffffffffffffffffffffffffffffffffffffffffffffffffffff1916908160001a905350600485901c9450806113e390611dff565b9050611301565b506000841461142e576040517f08c379a000000000000000000000000000000000000000000000000000000000815260040161142590611b28565b60405180910390fd5b8091505092915050565b50805460008255906000526020600020908101906114569190611459565b50565b5b8082111561147257600081600090555060010161145a565b5090565b60008135905061148581611f12565b92915050565b60008151905061149a81611f29565b92915050565b6000813590506114af81611f40565b92915050565b6000813590506114c481611f57565b92915050565b6000813590506114d981611f6e565b92915050565b6000815190506114ee81611f6e565b92915050565b60006020828403121561150657600080fd5b60006115148482850161148b565b91505092915050565b60006020828403121561152f57600080fd5b600061153d848285016114a0565b91505092915050565b6000806040838503121561155957600080fd5b6000611567858286016114a0565b925050602061157885828601611476565b9150509250929050565b60006020828403121561159457600080fd5b60006115a2848285016114b5565b91505092915050565b6000602082840312156115bd57600080fd5b60006115cb848285016114ca565b91505092915050565b6000602082840312156115e657600080fd5b60006115f4848285016114df565b91505092915050565b61160681611d4e565b82525050565b61161581611d60565b82525050565b61162481611d6c565b82525050565b600061163582611c43565b61163f8185611c4e565b935061164f818560208601611dcc565b61165881611f01565b840191505092915050565b600061166e82611c43565b6116788185611c5f565b9350611688818560208601611dcc565b80840191505092915050565b60006116a1601b83611c4e565b91507f4e6f7420656e6f7567682074696d6520686173207061737365642100000000006000830152602082019050919050565b60006116e1602083611c4e565b91507f537472696e67733a20686578206c656e67746820696e73756666696369656e746000830152602082019050919050565b6000611721602c83611c4e565b91507f726571756972657320656974686572206f776e6572206f72206d616e6167657260008301527f207065726d697373696f6e7300000000000000000000000000000000000000006020830152604082019050919050565b6000611787601f83611c4e565b91507f4661696c656420746f206177617264206c6f74746572792077696e6e65722e006000830152602082019050919050565b60006117c7603183611c4e565b91507f696e73756666696369656e7420746f6b656e2062616c616e63652e205469636b60008301527f657473203230204c554b5420656163682e0000000000000000000000000000006020830152604082019050919050565b600061182d601a83611c4e565b91507f7265717569726573206f776e6572207065726d697373696f6e730000000000006000830152602082019050919050565b600061186d601983611c4e565b91507f4e6f7420656e6f756768206d6f6e657920746f206769766521000000000000006000830152602082019050919050565b60006118ad602783611c4e565b91507f757361676520666565732062616c616e6365206c6f776572207468616e20657860008301527f7065637465642e000000000000000000000000000000000000000000000000006020830152604082019050919050565b6000611913601783611c5f565b91507f416363657373436f6e74726f6c3a206163636f756e74200000000000000000006000830152601782019050919050565b6000611953601183611c5f565b91507f206973206d697373696e6720726f6c65200000000000000000000000000000006000830152601182019050919050565b6000611993602f83611c4e565b91507f416363657373436f6e74726f6c3a2063616e206f6e6c792072656e6f756e636560008301527f20726f6c657320666f722073656c6600000000000000000000000000000000006020830152604082019050919050565b6119f581611dc2565b82525050565b6000611a0682611906565b9150611a128285611663565b9150611a1d82611946565b9150611a298284611663565b91508190509392505050565b6000602082019050611a4a60008301846115fd565b92915050565b6000606082019050611a6560008301866115fd565b611a7260208301856115fd565b611a7f60408301846119ec565b949350505050565b6000604082019050611a9c60008301856115fd565b611aa960208301846119ec565b9392505050565b6000602082019050611ac5600083018461160c565b92915050565b6000602082019050611ae0600083018461161b565b92915050565b60006020820190508181036000830152611b00818461162a565b905092915050565b60006020820190508181036000830152611b2181611694565b9050919050565b60006020820190508181036000830152611b41816116d4565b9050919050565b60006020820190508181036000830152611b6181611714565b9050919050565b60006020820190508181036000830152611b818161177a565b9050919050565b60006020820190508181036000830152611ba1816117ba565b9050919050565b60006020820190508181036000830152611bc181611820565b9050919050565b60006020820190508181036000830152611be181611860565b9050919050565b60006020820190508181036000830152611c01816118a0565b9050919050565b60006020820190508181036000830152611c2181611986565b9050919050565b6000602082019050611c3d60008301846119ec565b92915050565b600081519050919050565b600082825260208201905092915050565b600081905092915050565b6000611c7582611dc2565b9150611c8083611dc2565b9250827fffffffffffffffffffffffffffffffffffffffffffffffffffffffffffffffff03821115611cb557611cb4611ea3565b5b828201905092915050565b6000611ccb82611dc2565b9150611cd683611dc2565b9250817fffffffffffffffffffffffffffffffffffffffffffffffffffffffffffffffff0483118215151615611d0f57611d0e611ea3565b5b828202905092915050565b6000611d2582611dc2565b9150611d3083611dc2565b925082821015611d4357611d42611ea3565b5b828203905092915050565b6000611d5982611da2565b9050919050565b60008115159050919050565b6000819050919050565b60007fffffffff0000000000000000000000000000000000000000000000000000000082169050919050565b600073ffffffffffffffffffffffffffffffffffffffff82169050919050565b6000819050919050565b60005b83811015611dea578082015181840152602081019050611dcf565b83811115611df9576000848401525b50505050565b6000611e0a82611dc2565b91506000821415611e1e57611e1d611ea3565b5b600182039050919050565b6000611e3482611dc2565b91507fffffffffffffffffffffffffffffffffffffffffffffffffffffffffffffffff821415611e6757611e66611ea3565b5b600182019050919050565b6000611e7d82611dc2565b9150611e8883611dc2565b925082611e9857611e97611ed2565b5b828206905092915050565b7f4e487b7100000000000000000000000000000000000000000000000000000000600052601160045260246000fd5b7f4e487b7100000000000000000000000000000000000000000000000000000000600052601260045260246000fd5b6000601f19601f8301169050919050565b611f1b81611d4e565b8114611f2657600080fd5b50565b611f3281611d60565b8114611f3d57600080fd5b50565b611f4981611d6c565b8114611f5457600080fd5b50565b611f6081611d76565b8114611f6b57600080fd5b50565b611f7781611dc2565b8114611f8257600080fd5b5056fea26469706673582212205d5d88d87196bc604c4d175d1df6be3fc067e9546e0d94c4d718c0130075601664736f6c63430008000033",
  "linkReferences": {},
  "deployedLinkReferences": {}
}